:020000040800F2
:1000000000000120C5020008CB020008CF02000852
:1000100041030008450300088D03000800000000AC
:10002000000000000000000000000000D5030008F0
:10003000D903000800000000DD0300087D19000856
:10004000F1030008F1030008F1030008F1030008C0
:10005000F1030008F1030008ED1000080911000881
:10006000F1030008F1030008F1030008F1030008A0
:10007000F1030008F1030008F1030008F103000890
:10008000F1030008F1030008F1030008000000007C
:10009000000000000000000000000000F103000864
:1000A000F1030008F1030008F1030008F103000860
:1000B000E9140008C9150008A1160008F10300089A
:1000C000F1030008F1030008F1030008F103000840
:1000D000F1030008F1030008F1030008000000002C
:1000E000F1030008F1030008F1030008000000001C
:1000F000000000000000000000000000F103000804
:1001000000000000F1030008F1030008F1030008FB
:1001100000000000000000000000000000000000DF
:10012000F1030008F1030008F1030008F1030008DF
:10013000F1030008000000000000000000000000C3
:10014000000000000000000000000000F1030008B3
:10015000F1030008F1030008F1030008F1030008AF
:10016000F1030008F1030008000000000000000097
:10017000000000000000000000000000000000007F
:1001800000000000F1030008000000000000000073
:10019000F103000800B583B000F040FE384B394A47
:1001A0001360394A1360394900E02146384B9942BF
:1001B0000BD20A684B6801F10C0488689842F4D9A4
:1001C0001168196004330432F8E72E4B1A68314B7A
:1001D0009A4200D0FEE72C4B1A682F4B9A42F9D175
:1001E000274B2E4A13602E4A13602E4B05E0002049
:1001F000106004329342FAD80B462B4A934204D241
:10020000194651F8082B5B68F4E7244B1B6813B9B7
:10021000234B1B6803B1FEE701F0BEFC694601A851
:1002200000F08EFD214C224BE41AA4100025AC42B4
:1002300014DC204C204BE41AA4100025AC4213DC43
:100240000099019801F0F8FD05461C4C1C4BE41A7E
:10025000A410002C0EDC284600F044FD144B53F88B
:10026000253098470135E2E7134B53F8253098477E
:100270000135E3E7013C124B53F824309847E8E797
:10028000BABADECA0000002078000020F40300089B
:100290000C04000878563412325476987C00002002
:1002A000640200200C0400081C0400081C04000860
:1002B0001C0400081C0400081C0400081C0400089E
:1002C0001C04000808B5FFF765FF00BEFEE71EF03E
:1002D000040F0CBFEFF30880EFF309807146414A29
:1002E00010472DE9F04182B004468846124B5E6B00
:1002F0009F6B9D6A1B6B13F0020F03D00E4BDB6AE2
:10030000002B0CDB0D4800F02DFDCDF800803B46A6
:1003100032462946204600F08DFD00BEFEE74BF632
:10032000AB6100F001FE0028ECD0034B4FF000421F
:10033000DA6202B0BDE8F08100ED00E0A829000813
:1003400000BEFEE71EF0040F0CBFEFF30880EFF3D2
:1003500009807146244A10472DE9F04182B00446D5
:100360008846084B5E6B9F6B9D6A074800F0FAFC5D
:10037000CDF800803B4632462946204600F05AFD23
:1003800000BEFEE700ED00E0B82900081EF0040FF3
:100390000CBFEFF30880EFF309807146134A104752
:1003A0002DE9F04182B004468846084B5E6B9F6B96
:1003B0009D6A074800F0D6FCCDF800803B463246E7
:1003C0002946204600F036FD00BEFEE700ED00E0C5
:1003D000C429000800BEFEE700BEFEE700BEFEE73F
:1003E00070470000E302000859030008A103000859
:0403F00000BEFEE766
:1003F40078A80308000000207C00002078A80308E7
:1004040000000010000000107C00002068020020A2
:080414000000001000000010C0
:1004200010B50446074B1868074BA3FB0030800942
:1004300000F090F8002221464FF0FF3000F044F821
:10044000002010BD0C000020D34D621008B50B4BEE
:100450001A6842F400721A601A6842F480621A60E4
:100460001A6842F480721A60032000F00FF80F201F
:10047000FFF7D6FF01F030FD002008BD003C024030
:10048000014B1868704700BF5C02002010B504469D
:10049000C31E042B0FD80A4AD36823F4E0631B045D
:1004A0001B0C240204F4E064234343F0BF6343F4D1
:1004B0000033D36010BDA421024800F049FCEAE7F4
:1004C00000ED00E0D827000870B505460C4616463A
:1004D0000F2A25D80F2C28D81B4BDB68C3F3022327
:1004E000C3F10702042A28BF0422191D062921D9B5
:1004F000033B4FF0FF3101FA02F224EA02049C4070
:1005000001FA03F326EA03063443002D14DB240129
:10051000E4B205F1604505F5614585F8004370BD1D
:10052000BC210A4800F014FCD4E7BD21074800F0C4
:100530000FFCD1E70023DCE705F00F052401E4B24E
:10054000034B5C55EBE700BF00ED00E0D827000847
:1005500014ED00E00138B0F1807F0AD2064B5860FC
:10056000064AF02182F823100020986007221A60C2
:1005700070470120704700BF10E000E000ED00E090
:1005800010B50446042800D038B9042C0BD0094A11
:10059000136823F00403136010BD40F2B311064842
:1005A00000F0D6FBF1E7034A136843F0040313603D
:1005B000F2E700BF10E000E0D827000830B583B0B4
:1005C000044603680F2B29D8236813F0010F3DD090
:1005D0006368012B01D9052B25D1A34B9B6803F040
:1005E0000C03042B29D0A04B9B6803F00C03082BB1
:1005F0001ED022799D4B1A706368002B50D0FFF7F4
:100600003FFF0546984B1B6813F4003F1ED1FFF7D0
:1006100037FF401B6428F5D90320E3E1F521944816
:1006200000F096FBD0E7FA21914800F091FBD4E767
:100630008D4B5B6813F4800FDBD08B4B1B6813F47E
:10064000003F03D06368002B00F0C981236813F0DA
:10065000020F5DD0E368012B31D823691F2B34D8FA
:10066000814B9B6813F00C0F3AD07F4B9B6803F0D3
:100670000C03082B2FD0E368002B74D07D4B012294
:100680001A60FFF7FDFE0546774B1B6813F0020F5B
:100690005AD1FFF7F5FE401B0228F5D90320A1E14E
:1006A000FFF7EEFE0546704B1B6813F4003FCDD0FC
:1006B000FFF7E6FE401B6428F5D9032092E14FF4D2
:1006C00096716B4800F044FBC7E740F22D11684873
:1006D00000F03EFBC4E7644B5B6813F4800FCAD1A3
:1006E000614B1B6813F0020F04D0E368012B01D0AB
:1006F000012077E15C48036823F0F8032169F822C0
:1007000092FAA2F2B2FA82F201FA02F21343036001
:10071000236813F0080F50D06369012B35D8636943
:10072000002B38D0544B01221A60FFF7A9FE054672
:100730004D4B5B6F13F0020F3FD1FFF7A1FE401B43
:100740000228F5D903204DE14748036823F0F80358
:100750002169F82292FAA2F2B2FA82F201FA02F2C6
:1007600013430360D4E7434B00221A60FFF788FE6F
:1007700005463D4B1B6813F0020FC9D0FFF780FE02
:10078000401B0228F5D903202CE140F26D113848B6
:1007900000F0DEFAC3E7384B00221A60FFF770FE64
:1007A0000546314B5B6F13F0020F06D0FFF768FE72
:1007B000401B0228F5D9032014E1236813F0040F2D
:1007C00060D0A368012B01D9052B1FD10023019311
:1007D000254B1A6C42F080521A641B6C03F0805354
:1007E0000193019B254A136843F480731360FFF75C
:1007F00047FE0546214B1B6813F4807F0CD1FFF7A1
:100800003FFE401B0228F5D90320EBE040F2971190
:10081000174800F09DFAD9E7227A194B1A70A3689D
:1008200083B1FFF72DFE05460F4B1B6F13F0020F30
:1008300028D1FFF725FE401B41F288339842F3D9B7
:100840000320CFE0FFF71CFE0546074B1B6F13F09C
:10085000020F17D0FFF714FE401B41F28833984275
:10086000F3D90320BEE000BF003802400238024046
:100870001C28000800004742800E474200700040DC
:1008800070380240A369022B39D8A369002B00F00D
:10089000A880564A926802F00C02082A00F0A48050
:1008A000022B40F08880E36913B1B3F5800F2CD19F
:1008B000236A3F2B2FD8636A323BB3F5BF7F30D812
:1008C000A36A022B05D0042B03D0062B01D0082BE2
:1008D0002DD1E36A043B0B2B2FD8454B00221A6025
:1008E000FFF7CEFD0546414B1B6813F0007F2AD071
:1008F000FFF7C6FD401B0228F5D9032072E04FF434
:10090000E6713C4800F024FABFE740F2D5113948BF
:1009100000F01EFACCE74FF4EB71364800F018FAFD
:10092000C9E740F2D711334800F012FAC8E74FF494
:10093000EC71304800F00CFACBE740F2D9112D48A9
:1009400000F006FAC9E7E369226A1343616A47F6D1
:10095000C07292FAA2F2B2FA82F201FA02F21343E0
:10096000A26A5208013A4FF4403191FAA1F1B1FA6A
:1009700081F18A401343E16A4FF0706292FAA2F269
:10098000B2FA82F201FA02F21343184A5360184B8A
:1009900001221A60FFF774FD0446144B1B6813F024
:1009A000007F06D1FFF76CFD001B0228F5D903205C
:1009B00018E0002016E00E4B00221A60FFF760FDE1
:1009C00004460A4B1B6813F0007F06D0FFF758FD62
:1009D000001B0228F5D9032004E0002002E00120DA
:1009E00000E0002003B030BD0120FBE700380240EA
:1009F000600047421C2800081F4B9B6803F00C0353
:100A0000082B36D11C4B586800F03F005B6813F48C
:100A1000800F1ED0194AB2FBF0F2174B586847F608
:100A2000C073184093FAA3F3B3FA83F3D84000FBE2
:100A300002F0114B5B6803F440334FF4403292FAFA
:100A4000A2F2B2FA82F2D34001335B00B0FBF3F0C2
:100A500070470A4AB2FBF0F2074B586847F6C0737A
:100A6000184093FAA3F3B3FA83F3D84000FB02F0E3
:100A7000DFE70248704700BF003802400024F4005E
:100A800070B504460D460368013B0E2B11D8072DA7
:100A900015D88C4B1B6803F00F03AB4215D2EBB299
:100AA000884A1370136803F00F03AB420DD0012086
:100AB00070BD40F23721844800F04AF9E7E74FF46F
:100AC0000E71814800F044F9E3E7236813F0020F48
:100AD00018D0A3687BB1802B0DD0902B0BD0A02B0E
:100AE00009D0B02B07D0C02B05D0D02B03D0E02BE2
:100AF00001D0F02B37D1754A936823F0F003A16839
:100B00000B439360236813F0010F73D06368032BCA
:100B10002FD86368012B32D09A1E012A36D96B4A2E
:100B2000126812F0020F00F0CA8068498A6822F049
:100B3000030213438B60FFF7A3FC06466368012B97
:100B40002BD0022B38D0032B45D0604B9B6813F081
:100B50000C0F4FD0FFF794FC801B41F28833984272
:100B6000F3D90320A4E740F24F21574800F0F0F8F2
:100B7000C1E740F25621544800F0EAF8C9E7534A69
:100B8000126812F4003FD0D1012091E74F4A126859
:100B900012F0007FC9D101208AE74C4B9B6803F01B
:100BA0000C03042B26D0FFF76BFC801B41F288332B
:100BB0009842F2D903207BE7444B9B6803F00C0377
:100BC000082B17D0FFF75CFC801B41F2883398425A
:100BD000F2D903206CE73D4B9B6803F00C030C2B10
:100BE00008D0FFF74DFC801B41F288339842F2D9C0
:100BF00003205DE7334B1B6803F00F03AB4209D9B9
:100C0000EAB2304B1A701B6803F00F03AB4201D0FD
:100C100001204DE7236813F0040F14D0E3685BB1A3
:100C2000B3F5805F08D0B3F5A05F05D0B3F5C05F22
:100C300002D0B3F5E05F36D1244A936823F4E05341
:100C4000E1680B439360236813F0080F15D0236904
:100C50005BB1B3F5805F08D0B3F5A05F05D0B3F505
:100C6000C05F02D0B3F5E05F23D1184A936823F444
:100C70006043216943EAC1039360FFF7BDFE134B54
:100C80009B6803F0F003F02292FAA2F2B2FA82F229
:100C9000D3400F4AD35CD8400E4B18600F20FFF7AB
:100CA000BFFB002004E74FF42D71074800F050F817
:100CB000C2E740F2BB21044800F04AF8D5E7012022
:100CC000F6E600BF003C02401C2800080038024045
:100CD0000C2800080C000020014B1868704700BF6A
:100CE0000C000020FEE7000008B5034800F052F8B1
:100CF0000120FFF7F7FF00BF4C28000808B50346A6
:100D00000C4A12685AB10B4A1068033323F00303EC
:100D10000344094A934206D8064A136008BD054AAF
:100D200006491160EFE701F0D9F80C2303604FF09A
:100D3000FF30F3E78000002000FC00206802002064
:100D400001230360014B0B60704700BF04000020CB
:100D500008B50A460146024800F004F8FFF7C4FF50
:100D6000602800080FB400B583B004AB53F8042B1F
:100D700001938021064801F0EBF8002803DD0146CD
:100D8000034800F047F803B05DF804EB04B0704787
:100D90008800002010B5044601F0A6F80146204660
:100DA00000F038F80121024800F034F810BD00BF0F
:100DB000242900082DE9F04385B004460F46435628
:100DC0000BB10E461EE0042528462146ABBE044664
:100DD000384605B0BDE8F08314F9011B04AA1A4493
:100DE00002F8101C0133AB42F6D304AA13440022CC
:100DF00003F8102C4FF00408E94640464946ABBEC4
:100E00008046761B002EE3D03546102E28BF1025D5
:100E10000023E8E708B5FFF7CDFF08BD08B500F0EF
:100E200093F8024A024B9A6008BD00BF0000000818
:100E300000ED00E0F8B504460D4617461E4627486B
:100E4000FFF790FF21682648FFF78CFF616825486F
:100E5000FFF788FFA1682448FFF784FFE168234873
:100E6000FFF780FF21692248FFF77CFF6169214875
:100E7000FFF778FFA1692048FFF774FFE1691F4879
:100E8000FFF770FF1E48FFF76DFF29461D48FFF76B
:100E900069FF1D4CE16A1D48FFF764FF216B1C4888
:100EA000FFF760FFE16B1B48FFF75CFF15F0800F59
:100EB0000AD115F4004F0CD11748FFF753FF0699DC
:100EC0001648FFF74FFFF8BD39461548FFF74AFFB0
:100ED000EFE731461348FFF745FFEDE78C280008A0
:100EE0009C280008AC280008BC280008CC28000872
:100EF000DC280008EC280008FC2800080C29000861
:100F00001C2900082829000800ED00E03829000805
:100F10004829000858290008882900089029000855
:100F2000682900087829000883691A888A4201D054
:100F3000002070470268033A012A03D80233836114
:100F400001207047002070470C4B1A6842F00102E4
:100F50001A60002199601A6822F0847222F48032AB
:100F60001A60074A5A601A6822F480221A60D9600F
:100F7000044B4FF000629A60704700BF0038024097
:100F80001030002400ED00E0224B9B6803F00C03BE
:100F9000042B14D0082B16D01BB11F4B1F4A1A600C
:100FA00002E01D4B1D4A1A601A4B9B68C3F30313E2
:100FB0001B4AD15C184A1368CB4013607047164B2C
:100FC000164A1A60F0E7134B5A685B6803F03F0358
:100FD00012F4800F13D0114AB2FBF3F20D4B5B6891
:100FE000C3F3881303FB02F30A4A5268C2F30142B7
:100FF00001325200B3FBF2F3074A1360D4E7074A09
:10100000B2FBF3F2034B5B68C3F3881303FB02F3F9
:10101000EAE700BF003802400C0000200024F40082
:10102000D429000830B483080A4A023352F8234016
:1010300000F0030080000F25854024EA050442F8F3
:10104000234052F823408140214342F8231030BC12
:10105000704700BF0038014011B1012908D0704726
:1010600008490B68012202FA00F018430860704733
:1010700004490B68012202FA00F023EA000008602C
:10108000704700BF003C014001290FD011B1022977
:1010900018D07047114B9968012202FA00F0014301
:1010A0009960DA6822EA0000D86070470B4BD96873
:1010B000012202FA00F00143D9609A6822EA000096
:1010C00098607047054AD168012303FA00F0014394
:1010D000D160936818439060704700BF003C0140A6
:1010E000014B1860704700BF0801002008B5044B91
:1010F0001B689847034A536943F00103536108BDD5
:1011000008010020003C014008B5044B5B6898478B
:10111000034A536943F00203536108BD08010020EC
:10112000003C014010B4012817D018B1022826D085
:1011300010BC7047A1F10D03DBB2022BF8D9174B9D
:101140001868490003248C4020EA040018601868DD
:1011500002FA01F101431960EAE78B1EDBB2022BB0
:10116000E6D90F4B1868490003248C4020EA04009C
:101170001860186802FA01F101431960D8E7094BB9
:101180001868490003248C4020EA0400186018689D
:1011900002FA01F101431960CAE700BF00000240F2
:1011A000000402400008024030B4012821D018B1E8
:1011B00002283AD030BC7047A1F10D00C0B202281D
:1011C000F8D92648446801258D4024EA0504446086
:1011D00044688A40224342608268490003248C406C
:1011E00022EA04028260826803FA01F111438160FD
:1011F000E0E7881EC0B20228DCD9194844680125FE
:101200008D4024EA0504446044688A4022434260D9
:101210008268490003248C4022EA040282608268CA
:1012200003FA01F111438160C4E70E4844680125C7
:101230008D4024EA0504446044688A4022434260A9
:101240008268490003248C4022EA0402826082689A
:1012500003FA01F111438160ACE700BF00000240D6
:10126000000402400008024010B4012817D018B151
:10127000022826D010BC7047A1F10D03DBB2022B6F
:10128000F8D9174BD868490003248C4020EA0400A1
:10129000D860D86802FA01F10143D960EAE78B1EF1
:1012A000DBB2022BE6D90F4BD868490003248C40EF
:1012B00020EA0400D860D86802FA01F10143D9603D
:1012C000D8E7094BD868490003248C4020EA040081
:1012D000D860D86802FA01F10143D960CAE700BFBB
:1012E00000000240000402400008024010B401283F
:1012F00015D018B1022822D010BC7047A1F10D03FF
:10130000DBB2022BF8D9144B586901248C4020EA37
:101310000400586158698A4002435A61ECE78B1E09
:10132000DBB2022BE8D90D4B586901248C4020EA2E
:101330000400586158698A4002435A61DCE7084B4F
:10134000586901248C4020EA0400586158698A4099
:1013500002435A61D0E700BF00000240000402408F
:1013600000080240072926D8012810D010B1022811
:1013700019D07047A1F10D03DBB2022B49D92548E2
:10138000036A890002FA01F10B43036270478B1E66
:10139000DBB2022B3DD92048036A890002FA01F131
:1013A0000B43036270471D48036A890002FA01F18A
:1013B000194301627047A1F10803DBB2072B28D85B
:1013C000012811D010B102281BD07047A1F10D03E4
:1013D000DBB2022B1DD90F48436A0839890002FA93
:1013E00001F11943416270478B1EDBB2022B10D909
:1013F0000948436A0839890002FA01F11943416238
:1014000070470448436A0839890002FA01F1194318
:1014100041627047000002400004024000080240A0
:101420004FF080431A6822F070021A601A6842F086
:1014300010021A601A6842F080021A601A6842F0BC
:1014400004021A601A6822F002021A60DA6822F0B6
:101450000102DA6007229A627047000010B440006F
:10146000204BA3FB0023DB0BC3EB0344041B19E05D
:101470004FF080434FF6FF72DA625A6942F0010280
:101480005A611A6842F001021A604FF080431B69EA
:1014900013F0010FF9D04FF08042136923F00103DC
:1014A00013610B46591E002BE2D14FF08043DC62E2
:1014B0005A6942F001025A611A6842F001021A6048
:1014C0004FF080431B6913F0010FF9D04FF08043B8
:1014D0001A6922F001021A611A6822F001021A60E8
:1014E00010BC70470180008008B5314B1B7833B1C8
:1014F000304B1A68304B1A602D4B00221A702E4B5D
:101500001B68012B11D92C4A1368013B13604FF063
:1015100080431A6922F001021A614FF6FF72DA6203
:101520005A6942F001025A6108BD234B1B68012B26
:1015300026D0224B1B784BB94FF08043DA6822F05B
:101540000102DA601A6822F001021A601C4B1B6863
:1015500098474FF08042136923F001031361154B44
:101560001B68FBB113464FF6FF72DA624FF0804200
:10157000536943F0010353610D4B01221A70D3E705
:101580000D4A1368013B13604FF080431A6922F043
:1015900001021A610B4A1268DA625A6942F00102CA
:1015A0005A61C1E7074B1A684FF08043DA62DDE702
:1015B0001000002050010020480100207001002090
:1015C0006C0100204C01002008B52E4B1B7833B174
:1015D0002D4B1A682D4B1A602A4B00221A702B4B88
:1015E0001B68012B10D9294A1368013B1360284B53
:1015F0001A6922F001021A614FF6FF72DA625A6923
:1016000042F001025A6108BD204B1B68012B23D018
:10161000204B1B7843B91E4BDA6822F00102DA60D6
:101620001A6822F001021A601B4B1B689847184A7F
:10163000136923F001031361134B1B68EBB11346CD
:101640004FF6FF72DA62124A536943F001035361A5
:101650000C4B01221A70D6E70C4A1368013B136049
:101660000B4B1A6922F001021A610C4A1268DA6205
:101670005A6942F001025A61C5E7084B1A68044BE7
:10168000DA62E0E7110000205C0100205401002034
:10169000000400407801002074010020580100205F
:1016A00008B52E4B1B7833B12D4B1A682D4B1A60A1
:1016B0002A4B00221A702B4B1B68012B10D9294A88
:1016C0001368013B1360284B1A6922F001021A616A
:1016D0004FF6FF72DA625A6942F001025A6108BDA0
:1016E000204B1B68012B23D0204B1B7843B91E4B8A
:1016F000DA6822F00102DA601A6822F001021A6048
:101700001B4B1B689847184A136923F001031361A8
:10171000134B1B68EBB113464FF6FF72DA62124AA5
:10172000536943F0010353610C4B01221A70D6E751
:101730000C4A1368013B13600B4B1A6922F001023B
:101740001A610C4A1268DA625A6942F001025A615F
:10175000C5E7084B1A68044BDA62E0E71200002084
:101760006801002060010020000800408001002086
:101770007C01002064010020084A136843F0010343
:101780001360064B1B6813F0020FFAD0034B9A68E4
:1017900022F003029A609A689A607047003802400B
:1017A000032822D8DFE800F0020A121A0F48036B60
:1017B000012202FA01F11943016370470B48436BA0
:1017C000012202FA01F11943416370470748036C93
:1017D000012202FA01F11943016470470348436C86
:1017E000012202FA01F119434164704700380240B6
:1017F00010B44409064951F8243000F01F000122BA
:1018000002FA00F0184341F8240010BC704700BFF2
:1018100000E100E010B500240CE001222146104652
:10182000FFF780FC0123002221461846FFF7BCFC8D
:101830000134E4B2072CF0D910BD2DE9F041064681
:101840000F46904600250FE0725D224102F0010232
:1018500021460120FFF74AFD0134E4B2072CF3D9F9
:101860007D20FFF7FBFD0135BD4205D298F8003021
:10187000012B01D10024F1E7BDE8F081144B1A6877
:1018800022F040021A601A6822F400621A601A6894
:1018900022F038021A601A6842F002021A601A68CE
:1018A00022F001021A601A6842F004021A601A68F3
:1018B00022F080021A601A6842F480721A601A6874
:1018C00042F400721A601A6842F040021A607047CF
:1018D00000300140074B9B6813F0020FFAD0054B14
:1018E000D860044B9B6813F0010FFAD0014BD86805
:1018F00080B2704700300140024A136823F00403AD
:101900001360704710E000E0044B00229A605860BA
:101910001A6842F001021A60704700BF10E000E050
:1019200010B1012806D07047054A136843F002033E
:1019300013607047024A136823F002031360704774
:1019400010E000E0024B58689B68C01A704700BF67
:1019500010E000E008B5064A136823F001031360A5
:10196000044B1960FFF7D0FF034B01221A7008BD2A
:1019700010E000E0840100208101002008B5064B42
:101980001B6823B19847054B1B78012B00D008BD7D
:10199000014B00221A60FAE7840100208101002037
:1019A00010B50446002209211046FFF79FFC20468F
:1019B000FFF790FF10BD10B5044601220921002059
:1019C000FFF794FC2046FFF785FF10BD08B5012204
:1019D00009210020FFF7A6FB012208210020FFF7C4
:1019E000A1FB00231A4609211846FFF7DDFB00235F
:1019F0001A4608211846FFF7D7FB012208210020CC
:101A0000FFF774FC6420FFF729FD0022082110462F
:101A1000FFF76CFC0120FFF721FD012208210020C7
:101A2000FFF764FC6420FFF719FD0022082110462F
:101A3000FFF75CFC6420FFF711FD01220821002064
:101A4000FFF754FC7820FFF709FD1120FFF7A8FFEE
:101A50006420FFF703FD3A20FFF7A2FF0520FFF700
:101A6000AAFF2920FFF79CFF2E20FFF7A4FF2C20C0
:101A7000FFF7A1FF08BDF8B507460E4615461C4600
:101A80002A20FFF78DFF0020FFF795FF3846FFF76C
:101A900092FF0020FFF78FFF3046FFF78CFF2B20CF
:101AA000FFF77EFF0020FFF786FF2846FFF783FF42
:101AB0000020FFF780FF2046FFF77DFFF8BD38B517
:101AC00005469F2300227F211046FFF7D4FF2C20DC
:101AD000FFF766FF00240EE035F814006FEA1020CF
:101AE000C0B2FFF768FF15F81400C043C0B2FFF79B
:101AF00062FF0134A4B2B4F5A04FEDD938BD0000A7
:101B000070B594B000240194204B1A6C42F08052BE
:101B10001A641B6C03F080530193019B02941C4BCD
:101B20001A6842F440421A601B6803F4404302936F
:101B3000029B0123089309934FF480030F93102312
:101B400010934FF4A873119304261296072313934E
:101B500002250E9508A8FEF731FD0F230393049587
:101B600005944FF4805306930794294603A8FEF783
:101B700087FFFFF7B1F8074BA3FB00308009FEF7A2
:101B8000E9FC3046FEF7FCFC14B070BD00380240A2
:101B900000700040D34D621008B5FEF757FCFFF708
:101BA000AFFFFFF7F1F908BD10B5124B1B7863B911
:101BB00011491248FFF7CEFE0E4B01221A70104B4E
:101BC0001B78DBB2322B12D010BDFFF7BBFE0C4CE2
:101BD0002378DBB240080B4A42F823000649074845
:101BE000FFF7B8FE23780133DBB22370E7E700BFCD
:101BF000EAE700BF51020020F11C0008A0860100A6
:101C0000500200208801002010B5314B1B78DBB258
:101C1000122B13D8112B25D2062B22D10022012101
:101C20001046FFF763FB002202211046FFF75EFB20
:101C3000012203210020FFF759FB12E01A2B2CD0C0
:101C4000452B0ED1002201211046FFF74FFB002249
:101C500002211046FFF74AFB002203211046FFF73E
:101C600045FB10BD012211460020FFF73FFB00227B
:101C700002211046FFF73AFB002203211046FFF72E
:101C800035FB144C012323701348FFF718FF22463D
:101C900012491348FFF7D1FDE3E700220121104666
:101CA000FFF724FB012202210020FFF71FFB002287
:101CB00003211046FFF71AFB064C01232370094845
:101CC000FFF7FDFE224608490848FFF7B6FDC8E7C2
:101CD000520200205302002000560108192C010076
:101CE000E429000800F601084312010000960208EA
:101CF00008B5214B00221A70204B1A6842F20F736C
:101D00009A4230D91D4B1A6843F698239A422AD832
:101D1000002309E0012202FA01F11748027822EAC1
:101D2000010202700133DBB2072B17D8194603F109
:101D30001100124A52F82020B2F5FA6FEAD30F4A86
:101D400052F8200040F6FC029042E3D801229A406B
:101D5000094801781143C9B20170E3E7084B00223A
:101D60001A70FFF751FF0023064A1370034A1360ED
:101D7000054A137008BD00BF5202002088010020F0
:101D800053020020510200205002002008B5FFF746
:101D9000F3FC00210846FFF703FD0C210320FFF7A9
:101DA000FFFC01210020FFF7FBFC00210220FFF7D0
:101DB000F7FCFFF735FB08BD08B50122082100201C
:101DC000FFF7B0F9012209210020FFF7ABF900234A
:101DD0001A4608211846FFF7E7F900231A46092199
:101DE0001846FFF7E1F9022204210020FFF79AF9D3
:101DF000022205210020FFF795F90222062100208A
:101E0000FFF790F9022207210020FFF78BF9052246
:101E100004210020FFF7A6FA052211460020FFF753
:101E2000A1FA052206210020FFF79CFA05220721CE
:101E30000020FFF797FA08BD08B5FFF7A7FFFFF7E7
:101E4000BBFFFFF71BFDFFF757FDFFF7BFFDFFF7D8
:101E5000E1FC0020FFF764FD012211460020FFF79E
:101E600061F9012202210020FFF75CF90122032120
:101E70000020FFF757F9002211461046FFF752F9EC
:101E8000012200210846FFF7EFF900231A4601213D
:101E90001846FFF789F900231A4602211846FFF772
:101EA00083F900231A4603211846FFF77DF9002124
:101EB0000846FFF7B7F80748FFF712F90021084670
:101EC000FFF7CAF801210020FFF7DEF80620FFF730
:101ED0008FFCFEE7A91B000870470000014B186843
:101EE000704700BF14000020034613F8012B002A9E
:101EF000FBD1181A0138704730B5141E05469BB047
:101F0000184605DA8B232B604FF0FF301BB030BD35
:101F10004FF40273ADF80C3014BF04F1FF332346C5
:101F2000029305934FF6FF7300910491ADF80E30C4
:101F300002461E9B6946284600F072F8431CBCBF4F
:101F40008B232B60002CE1D0009B00221A70DDE770
:101F500007B5009313460A46014603480068FFF799
:101F6000CBFF03B05DF804FB140000202DE9F0471F
:101F70008E689E4282460C469046994637D88A899A
:101F800012F4906F31D0256809696F1A65690223D0
:101F900005EB450595FBF3F509F101033B449D4233
:101FA00038BF1D46530530D5294600F07BFB064659
:101FB00050B90C23CAF80030A38943F04003A38131
:101FC0004FF0FF30BDE8F0873A46216900F0F8FA9B
:101FD000A38923F4906343F08003A38126616561A4
:101FE0003E44ED1B2660A5604E464E4500D94E4648
:101FF00032464146206800F0EEFAA3689B1BA360BE
:1020000023681E4426600020DCE72A4600F0A4FB7B
:1020100006460028E2D12169504600F0F5FAC8E7EB
:102020002DE9F04F9DB0804603938B891D060C4629
:1020300016460FD50B696BB9402100F033FB2060C9
:10204000206128B90C23C8F800304FF0FF30C7E0FA
:10205000402363610023099320238DF82930302326
:102060008DF82A304FF0010B37463D4615F8013BFD
:102070000BB1252B3ED1B7EB060A0BD053463246A7
:1020800021464046FFF772FF013000F0A480099B13
:10209000534409933B78002B00F09D8000234FF0C0
:1020A000FF32CDE90523049307938DF853301A933B
:1020B0002F46052217F8011B4F4800F031FA049B08
:1020C000D0B9D90644BF20228DF853201A0744BF47
:1020D0002B228DF853202A782A2A15D0079A2F46CA
:1020E00000200A25394611F8013B303B092B4DD918
:1020F000B8B10FE02F46B8E73F4A801A0BFA00F05C
:10210000184304903D46D3E7039A111D12680391CA
:10211000002A01DB079204E0524243F002030792D7
:1021200004933B782E2B0CD17B782A2B33D1039B45
:102130001A1D1B680392002BB8BF4FF0FF33023704
:1021400005932E4D39780322284600F0E9F938B17D
:102150004023401B03FA00F0049B03430137049320
:10216000397827488DF8281006227E1C00F0D8F90F
:10217000002838D0234B13BB039B073323F00703FE
:1021800008330393099B4B4409936DE705FB023227
:1021900001200F46A6E700230137059319460A25BB
:1021A000384610F8012B303A092A03D9002BC8D041
:1021B0000591C6E705FB012101230746F0E703ABC4
:1021C00000932246104B04A94046AFF30080B0F1C3
:1021D000FF3F8146D6D1A3895B063FF536AF09980C
:1021E0001DB0BDE8F08F03AB00932246064B04A957
:1021F000404600F081F8EAE743A8030849A803082D
:102200004DA80308000000006D1F00082DE9F047ED
:1022100091461F468A680B69DDF820809342B8BF5B
:102220001346C9F8003091F8432006460C4612B117
:102230000133C9F800302368990642BFD9F800304D
:102240000233C9F80030256815F0060507D104F1FE
:10225000190AE368D9F800209B1AAB4228DC94F8ED
:1022600043302268003318BF012392062DD404F1B5
:10227000430239463046C047013020D02368E56824
:10228000D9F8002003F00603042B08BFAD1AA36899
:1022900022690CBF25EAE57500259342C4BF9B1A4D
:1022A000ED184FF000091A344D451AD1002008E00E
:1022B0000123524639463046C047013003D14FF022
:1022C000FF30BDE8F0870135C3E7E1185A1C302024
:1022D00081F84300224494F8451082F843100233F9
:1022E000C5E70123224639463046C0470130E6D0D3
:1022F00009F10109D8E700002DE9F04301F1430C91
:102300000C46097E85B06E291746064698460C9AFB
:1023100000F0B38022D8632936D00AD8002900F013
:10232000B980582900F0838004F1420584F84210F6
:1023300032E0642901D06929F6D1206813680506C6
:1023400003F104012AD51B681160002B03DA2D224A
:102350005B4284F843206F480A2239E0732900F079
:102360009D8008D86F2920D07029DDD1236843F0E3
:102370002003236003E0752917D07829D4D178236E
:1023800084F84530644855E01368191D1B681160D6
:1023900004F1420584F8423001238CE01B6811608F
:1023A00010F0400F18BF1BB2CFE713682568181D47
:1023B0001060280601D51B6802E06806FBD51B8863
:1023C00054486F2914BF0A220822002184F84310C0
:1023D0006568A560002DC0F29580216821F0040198
:1023E0002160002B3DD1002D40F08E806546082AEB
:1023F0000BD12368DB0708D5236962689A42DEBFE8
:10240000302305F8013C05F1FF35ACEB05032361F2
:10241000CDF800803B4603AA21463046FFF7F6FE82
:1024200001304DD14FF0FF3005B0BDE8F0833948A1
:1024300084F84510136821681D1D1B6815600A0685
:102440000BD5CA0744BF41F0200121601BB92268A7
:1024500022F0200222601022B7E74D0648BF9BB24F
:10246000EFE76546B3FBF2F102FB1133C35C05F8FD
:10247000013D0B460029F5D1B9E71368256861696C
:10248000181D106028061B6801D5196002E06A0655
:10249000FBD51980002323616546B9E71368191D30
:1024A00011601D6862680021284600F039F808B103
:1024B000401B606063682361002384F84330A7E712
:1024C00023692A4639463046C0470130AAD02368DE
:1024D0009B0713D4E068039B9842B8BF1846A3E754
:1024E00001234A4639463046C04701309AD001356B
:1024F000E368039A9B1AAB42F2DCEBE7002504F198
:102500001909F5E7002BACD1037884F8423004F1C7
:1025100042056CE754A8030865A803080000000002
:1025200001F0FF01102A2BDB10F0070F08D010F884
:10253000013B013A8B422DD010F0070F42B3F6D188
:10254000F0B441EA012141EA014122F007047FF0A1
:1025500000070023F0E80256083C85EA010586EAF8
:10256000010685FA47F5A3FA87F586FA47F6A5FA34
:1025700087F68EB9EED1F0BC01F0FF0102F0070240
:1025800032B110F8013B013A83EA010313B1F8D1EB
:102590000020704701387047002D06BF35460338CC
:1025A000073815F0010F07D1013015F4807F02BF05
:1025B000013015F4C03F0130F0BC0138704700BF56
:1025C00010B5431E0A44914200D110BD11F8014BD1
:1025D00003F8014FF7E7884210B501EB020307D873
:1025E000421E99420AD011F8014B02F8014FF8E758
:1025F0008342F5D98118D21AD34200D110BD13F805
:10260000014D01F8014DF7E738B50546002945D0E1
:1026100051F8043C0C1F002BB8BFE41800F0D2F8AE
:102620001F4A1368104633B9636014602846BDE83A
:10263000384000F0C8B8A3420CD921686218934210
:1026400004BF1A685B68636004BF521822600460AC
:10265000ECE713465A680AB1A242FAD91968581829
:10266000A0420BD120680144581882421960DDD184
:10267000106852685A6001441960D7E702D90C23E8
:102680002B60D3E7206821188A4204BF1168526882
:10269000626004BF091821605C60C7E738BD00BFF5
:1026A0005402002070B5CD1C25F0030508350C2D13
:1026B00038BF0C25002D064601DBA94203D90C23A7
:1026C0003360002070BD00F07DF8214A1468214677
:1026D00091B9204C23681BB9304600F063F82060A4
:1026E0002946304600F05EF8431C24D10C233360A9
:1026F000304600F068F8E4E70B685B1B18D40B2B3E
:102700000FD90B60CD50CC18304600F05CF804F1C6
:102710000B00231D20F00700C31AD3D05A42E25009
:10272000D0E78C424B6816BF636013600C46EBE742
:102730000C464968CCE7C41C24F00304A04205D031
:10274000211A304600F02EF80130CFD02560DBE7AB
:102750005402002058020020F8B5074614460E46E1
:1027600021B91146BDE8F840FFF79CBF22B9FFF739
:102770004BFF25462846F8BD00F026F8A0420FD2B0
:1027800021463846FFF78EFF05460028F2D0314635
:102790002246FFF715FF31463846FFF735FFE9E7D8
:1027A0003546E7E738B5064C002305460846236062
:1027B000FEF7A4FA431C02D1236803B12B6038BD95
:1027C000600200207047704751F8043C181F002B2E
:1027D000BCBF0B58C01870472E2E2F7379737465C9
:1027E0006D2F7372632F73746D333266342D68618D
:1027F0006C2F73746D3332663478785F68616C5F08
:10280000636F727465782E630000000000000000A2
:102810000102030401020304060708092E2E2F7388
:10282000797374656D2F7372632F73746D333266B1
:10283000342D68616C2F73746D3332663478785F31
:1028400068616C5F7263632E6300000061626F7287
:102850007428292C2065786974696E672E2E2E00E5
:102860006173736572745F706172616D282920668F
:1028700061696C65643A2066696C65202225732263
:102880002C206C696E652025640A00005374616316
:102890006B206672616D653A0A000000205230209C
:1028A0003D2020253038580A0000000020523120F9
:1028B0003D2020253038580A0000000020523220E8
:1028C0003D2020253038580A0000000020523320D7
:1028D0003D2020253038580A0000000020523132B7
:1028E000203D20253038580A00000000204C52209E
:1028F0003D2020253038580A000000002050432099
:102900003D2020253038580A000000002050535246
:10291000203D20253038580A000000004653522F31
:102920004641523A0A0000002043465352203D20BF
:1029300020253038580A00002048465352203D20B8
:1029400020253038580A00002044465352203D20AC
:1029500020253038580A00002041465352203D209F
:1029600020253038580A0000204D4D464152203D68
:1029700020253038580A00002042464152203D2090
:1029800020253038580A00004D6973630A000000A2
:10299000204C522F4558435F52455455524E3D20CE
:1029A000253038580A0000005B4861726446617542
:1029B0006C745D0A000000005B4275734661756CC3
:1029C000745D0A005B55736167654661756C745D83
:1029D0000A000000000000000000000001020304E3
:1029E00006070809807F7D7E83837F8086848080C0
:1029F00081817E7E80807E7E81807C7F817E7E7FE5
:102A00007E7E807E7D80818080808081807E7F81CF
:102A10007F7E817F7E82827F7F82817E7D7F7F7DC0
:102A20007C7E807E7C8081818181848280808081A7
:102A30007F7E7F7F807D7D807E7E7C80817C7F80AD
:102A4000817F7E8281818281818282817F82817D7C
:102A50007E82817C7C80817D7C7E7F7E7D7E7F7F8F
:102A60007F818382818383828180807F7E7D7D7E62
:102A70007D7D7D7E80807F80818180818282807E5D
:102A80007F807E7D7F817F7E7E7F7E7E7F7F808157
:102A9000807F8081807F7F82817E7E7D7E7F7D7D45
:102AA0007F80808081818284807F8182817E7E811F
:102AB000827F7B7C807F7C7A7E817F7C7E83827F2D
:102AC0007F838481807F81827E7D7E81807E7F8006
:102AD00080817E7D80817E7C8083807D80828181FB
:102AE00080828382827F7F817F7E7D7C807F7E7DEE
:102AF0007D807E7C7E80817E7F81818181818283D9
:102B0000807F818080807D7E81807E7E7F7E7F7FD2
:102B10007D7E7F7E7D7F807F7F81818180818482B9
:102B20007F80817F7D7D7E80817E7E81827F7F82AE
:102B3000817F8080808081807F8080807F7F817F97
:102B40007C7E81807D7F838281808081817F7C7D8E
:102B50007E7E7C7C7D80807E7E8283838181838477
:102B6000817E7E81807D7D7E7F7F7E7D7D81807D7B
:102B70007E817F7E8081807F8283818283827F7F4E
:102B8000807F7E7E7F81817D7C80827E7B7E828154
:102B90007C7D81837F7E828381807F7F81807E7D3B
:102BA0007F817E7D7F7E7F7D7E817F7E7F83807D36
:102BB0007F81807F8081828482818282817F7F8009
:102BC0007F7F7F7E7F7F7F7E7E807E7F7E7F7F7D1B
:102BD0007F807F818282818083807F8080807E7EF3
:102BE000807E7F817F7D7E817F7D7F7F81807F80F2
:102BF0007F807F80807E7F80807D7D80807E7F80E3
:102C00008081807E7E7F7E7E7F7E7D7E7F7D7D81DA
:102C100082828182838281828180807E7F7F7E7FAB
:102C20007F7E7D7F7D7B7F807E7C80827F7F8284B4
:102C300082808083827E7D7E80807E7F8080828194
:102C40007F8284828082817D7D7D7D7E7D80828287
:102C500083828080807D7A7D7D7C7D7D7C7D80828D
:102C6000807F8081817C7C7F807E7D8084888E8C4B
:102C70008783807D7A797673767C80858685868663
:102C80008583817C7775787B7B7C7F818384868557
:102C90008483817F7E7D7B7A7A7A7C7F80807F804F
:102CA0007F80807F7F7E7E80848C8E8A88827C7B02
:102CB0007B77757676798085868788878384837E1F
:102CC0007A777575787A7E818485888A8A89868004
:102CD0007D7E7C7A7A7B7B7B7C7D7F807F7E7E7D28
:102CE0007D7D7E7E8080828C908D8A85807B7876CB
:102CF00075767573777C83888A8C8A888380807DDB
:102D00007A787676787B7E82888988898986817EC2
:102D10007B787777787B7D7F807F7F808181807EE5
:102D20007B7B7C7D80898E8C8D8A847D7979797995
:102D300078787A7B7B808688898A8684837D7A7B93
:102D40007A7979797A7D8080848A8B888482807E82
:102D50007B7A7B7C7B7A7A7A7B7C7D7E7F808181AB
:102D60008184898C8C8D8A847F7974737577777967
:102D70007D7E7E7F838787888887837F7C7978794B
:102D80007A7B7C7F808082838585858583807C7942
:102D9000797878787A7B7979797B7E81888D91933F
:102DA000908D88817C76747474757677787A7C7E61
:102DB0008285898C8D8D8A86817E7B7A7A7A7B7DED
:102DC0007D7D7D7E7F8080808284817D7C7B7A7822
:102DD0007A7C8085878A8C8C8A83807E7B78777AE0
:102DE0007C7C7E7E7E7E7E7F8082838586838483DC
:102DF0007F7D7B7D7D7D7F7F80807E7D7D7F807FF1
:102E00008181807E7A797878797A7F85898B8E90B6
:102E10008C86807C79767577797B7B7D7E7F7E7FE3
:102E20008283858787878684817E7D7C7C7C7E808B
:102E3000807F7E7D7C7B7B7D7F808183827F7E7CAB
:102E40007B7B7D8285898C8D8C88827D797473757E
:102E500076787D7F7F818281808183858587878663
:102E600084807C7B7B7B7B7D8081817F7E7F807F7C
:102E70007F808281807E7C7C7B7B7D8083888C8E42
:102E80008D89837C77737273767A7C7E7E7D7C7D80
:102E90007D7F84888A8B8A8885817F7E7D7D7D7E0B
:102EA0007F807E7D7D7B7B7B7B7B7C7B7A797A7C64
:102EB0007D81868A8F9292908A827B74706F717303
:102EC000797D7E80807F808386898C8E8D898480C9
:102ED0007C797878787B7C7B7B7A797B7D80838436
:102EE00083827F7C797777787E84898E90908C85B9
:102EF0007F7A767577797D8181807F7E7E808387FA
:102F00008A8A88847F7A767474787D8183848281CA
:102F10007E7D7C7D808181807D7A7877797C8388D5
:102F20008E9493908B827A74707175797B7F818097
:102F30007F7F7F8285888A8986807B777576787D9A
:102F4000818383817F7E7D7C7D7E7E7F7F7E7D7C95
:102F50007B7D8183878E9194958E887E736C696862
:102F60006A6E73787F83868C8E9092918D88817A39
:102F700074706E7073787F858A8D8D8C89847F7A6A
:102F80007878797B7C7C7D7B7A7D80858C8F919233
:102F90008A81786E6A6B6E747A7F818385888D8F63
:102FA0008F8D877F78716B6D72777E86898A8D9120
:102FB00094938E84776E696A70797F81817D797749
:102FC000797E878C8F938E8B88817D7872706F70FD
:102FD000747A7F838B8F8E8F8B85807B77757474EB
:102FE000767A7F84888B8D8D8B878179726D6C70FA
:102FF0007881888B88837E7A7A7C7E7E7D7C8088CF
:103000008B9090887F766E6F747A808687868786AD
:10301000878B8A8882786F6B6C6F767E82858789D2
:103020008A8E908D867B6F6C6E737D848785817EA2
:103030007C7D7E7E7D7C7B7D879397999283776F65
:103040006C6F75787879787A848D92958F847A749C
:1030500073767A7A7A7A7A7D84888B8C8B86817E75
:10306000797677797B8185878886827D7A79787988
:103070007B7A7B82898C908D837B747273787B7A68
:103080007C7D7F868A8B8B8883807E7A7979767542
:10309000787A7E848788888A8A8987827B78747424
:1030A000777A7C7D7D7A7A7C7F81817F7E7C7E864B
:1030B0008B8C8B847F7C7A797B7E7A7878797D841F
:1030C0008A8B8A888583858382817D7977757578F7
:1030D000797A7B808386898683807E7E80817F7EED
:1030E0007E7D7E7F7E7D7C7B7B7C7D7C80848587F6
:1030F00087868684838382817E7D7C7B7A7A7B7BD4
:103100007C7D7E8083848482807F7F8081807F7EBF
:103110007C7D7F7F80808182828282848586868397
:1031200081807D7C7B7B7A79787776777B7F8184E1
:103130008583848585848483817F7E7C7C7D7D7C82
:103140007D7E7F8181818181818383838281818072
:10315000808081818181807F7E7D7C7C7C7D7F7F82
:103160007F7F7F7E7E7E7D7C7C7B7B7C7E8082837E
:103170008484858584848484838281808080808027
:103180008181807F7E7C7A7A7A7B7D7D7E7F7F8065
:103190008183848382818181807E7E7D7D7E7E7E2F
:1031A0007D7E7F808181817F7E7C7B7D7F8082842C
:1031B00085838383828180807F7F7E7F7E7D7D7E0D
:1031C0007E7F80807F7F7F7D7D7E7F7F7F8080810F
:1031D000838586868482828281807F7F7F7E7E7DDA
:1031E0007C7A79797978787A7B7C7E80838586860B
:1031F0008686858583807E7C7B7B7C7C7B7C7E7FDA
:10320000818384858483828181818281807E7D7DAA
:103210007E7F7E7C7C7C7E7F7F7F81818080807FC3
:103220007D7C7B7B797979797A7D82858688898AAC
:103230008A8A8984807D7C7B7C7C797777787B7EA9
:103240008081808182828282828181818283838166
:103250007F7D7C7D7E7D7D7D8081828180807F7F82
:103260007D7B7B7A7B7E8488888685858483838149
:103270007D7B7B7A7A7C7C7A7B7F808180807F7E7D
:103280007F80807F808283848789878583807E7D1D
:103290007C7B7B7E7E7D7D7B797879797876787C86
:1032A0007D848B8C89898C8B8886837C78787876F2
:1032B000757676777B808283868787878887848404
:1032C00083848586837D787675757779797C80822D
:1032D0008181817F7E7E7C7A777676777D8688880D
:1032E000898C8D8C8C89827E7E7E7A777777787CCC
:1032F0007F7F7E7F807F80838281828586868481B6
:103300007D7B7B7A79797B7D7F7E7E7E7F7F7E7DF4
:103310007E7E7E7E7D7C7F858B8B89888A8B89866D
:10332000807A787776757576787B7D7E7E808284EC
:1033300085858584848584817F7D7A777779787B9C
:103340008184848586848383817F7F817F7B797676
:103350007576777B8186878788888A8985817F7E55
:103360007C7978767676797D7F8081848688898875
:1033700087888785827F7C7B7B7C7C7B7A7A7B7D60
:103380007D7C7D7F818282807F8082807D7C7B7A54
:10339000797878797A7D808386878A8B8B8988850E
:1033A00082807F7E7D7C7B7C7C7B7A7B7D7E7E7E4B
:1033B00080818282818181817F7E7F7F7E7D7C7D15
:1033C0007E7E7F7F7F80807F8081828281817F7F00
:1033D000807F7F818282807F7F7D7D7D7C7C7E7D02
:1033E0007E808080808282828282817F7F7F7F7EDA
:1033F0007F808080808081838585848484828181B0
:10340000807F80817F7D7C7B7B7B7B7C7D7E7F80E2
:103410007F7F8081807E80807F7E7D7D7F80817EBA
:1034200080828081818282838482807F7F7E7E7F92
:103430007F8081807F7C7E7E7E7E7E808181808099
:103440007F7D7E7F7E7E7E7E7D7F7F7E7D7E807F98
:103450008181828283838484818082838180808051
:103460007F7E7C7C7B7B7C7C7C7E7E7F818181827D
:103470008482818080807F7D7E7D7C7E7E7F807F58
:103480008082828483818282808080807E7E7C7E36
:103490007F7D7C7E7F7F807F8180807F81807F7E3B
:1034A0007E7E7C7E7D7E7D80818080808282848520
:1034B00086848382817F7E7F808081807E7E7F7E06
:1034C0007D7D7C7C7C7E7F7E7E7E7E7F8081808019
:1034D00082828180807F7F7E7D7E7D7E80818182F1
:1034E0008282828181828281817F7E7E7E7D7B7CE1
:1034F0007D7D7E7F7F81807F8080807F7F7E7D7BE2
:103500007C7C7B7C7E7F80818284848586868484AB
:103510008281817F7E7E7E7D7D7C7D7C7C7D7E7ECA
:103520007E7F808281818281807F7F7E7F7F81819B
:1035300080807E7F807F7F81828281818180807F89
:1035400080828180807F7F7E7E7E7C7C7C7D7F7F91
:103550007E80828181828280807F7E7E7E7E7E7C74
:103560007C7F80808284848585848484818181813C
:1035700081807F7E7C7C7C7A7B7C7D7D7F81807F6F
:103580007F7F80818081818080807F7E7F807F803F
:10359000807F80808283808180808180818282831D
:1035A00083817F807F7E7D7C7D7E7E7E7E7E80802F
:1035B0007C7D7F807F7D7F7E7E7E7D7C7E80807F28
:1035C0007E8184848485828485848283817F7D7CDE
:1035D0007D7B7A7B7C7A7C7C7F8081808282818209
:1035E00081827F7E7F7F7C7D7C7C7D7F81818483E7
:1035F00082848785837F7E7E7F7E7F7E7E7F7F7DC8
:103600007E7F7F807F8281807F81807E80807E7EC2
:103610007E7E7E7D7F7F7F7F7F7F808182838185AD
:1036200085828382808080807E80817F7E7D7D7F99
:103630007C7C7C7F7E7C7F7E7F8082828281818198
:10364000807D7F7E7D7E7C7C7B7C7F838483818488
:10365000838280818281827F7F7E7D7C7A7B7C7D7C
:103660007F8081808080807F7F7E7E7D7D7E7E7E6C
:103670007E7E7F7E80818282848484868382828132
:1036800080807E7F807F7E7E807E7D7D7D7A7B7D5B
:103690007B7C7C7C7B7C7C7E818488898885807B2C
:1036A0007B7B7D7F7F808182838485848281808013
:1036B0008182817F7D7B797A7B7A7A7A7B7B7B7B47
:1036C0007C7C828D929491897D7470707577787806
:1036D000797C838B91918E88807C7B7B7C7F7F80C3
:1036E00081807E7C79767677787A7A79787A808D1F
:1036F000989B988D7F746F7073767776797D848CC4
:1037000091928E857D79797B7D7F8080818486858D
:10371000827E7A7878797B7B797878797E839097C6
:103720009692877C747170707373767C838D93949A
:10373000918B827A7876787A7C7F83868A8B878071
:1037400079747274777B7C7C7A787A7F859199978B
:1037500092867A726E6E6F7173777F889197989167
:10376000877E75727376787D7F848C91928D827559
:103770006E6D72797D7E7D7A7A7C81848A94948D57
:10378000847A716D6C6D72767B858E9598968D833B
:103790007B737071747A8086899094928A7D6E674B
:1037A000686F777D7E7B7A7B80878B8F96948A810A
:1037B00078706D6E7074787E868F949692897F781B
:1037C000747173777D83878B90939085776B676C2B
:1037D000757C807F7D7C7D81868A929790847A71CA
:1037E0006D6D7072777D848F9698958B80777270EF
:1037F00072777C8186898C8D8A8379706D70757AF9
:103800007D7C7A7A7C8085909D9D9182746C6A6DB6
:103810007174787E899398978F84797271727579B3
:103820007F868B8E8E8C877E746D6C6E767C7F80AF
:103830007D7C7E848C989B8F7D716B6B6E727477B0
:103840007B86949B9A94877C75747677787C80834A
:10385000888C8C88827A747171767B7C7C7B7B7F90
:1038600089999F958476706F72757676767A848C56
:1038700091918C857F7C7C7E80817F7D7F85898610
:103880007E7775787D7E7E7D7D7D7D7C7E8282816A
:10389000808082828282807E7C7A7B7C7E7F7E803A
:1038A000828486878786848381807F7F7F7E7C7BFE
:1038B0007B7B7C7D7D7D7C7B7A7A7D808385858426
:1038C00083848382807D7A78797B7E8081838586FC
:1038D0008684838280807F7E7E7E7F7F7E7F7E7AED
:1038E000797B7C7A787D888D8985827F7D7D7D7CE2
:1038F0007975777E828585848383848585817D7BC8
:103900007C7F848788857F79767577797B7C8490C6
:10391000938D85807B757373737377828C91918D92
:10392000867F7977767472747C878E908B837A74B5
:1039300073787C7D7E8996978F847C7571717475A0
:10394000767A858E908E89837C7877767371747D94
:10395000878B8A857F7671767D7E7C85979D968B19
:10396000837C7673737171747E898F908C847D797A
:103970007776727075818A8C8A8781787071777A90
:10398000777C8F9A958A837F777376787678839120
:1039900094918D857E7974716E6F757F888C8C891A
:1039A000857C72707579767789999689807D78742F
:1039B000757575798591928F8D8A85817D77706F08
:1039C000747C83878887827B757275787978839613
:1039D000998D807D7C79757270727986908F8C8CD0
:1039E00089847D787270757B82878B8C89817A74EB
:1039F0007374757475859A9C9082807E7774716EED
:103A0000707B8B908B8A89857F7B767071777D83C5
:103A10008A8F908C87807775787A7671778E9D956E
:103A2000837A7F7F7A736B6C76838E8C89898B8B9C
:103A3000847B716D7378797D828B8C8B877E7777B1
:103A40007A7C777579899F9D8E7E7F847E766B6682
:103A50006B79868885878E908B82776F707778797F
:103A60007E858A8D8A827975767878757275839E5F
:103A7000A59889858C857B6D65666F7D827E7F8943
:103A80009292897F7B78787872737C888D8C88821B
:103A90007E7A7774717173797D8E9C9990888E8906
:103AA0008078706C6D797E7D7D868F8F8A84817D34
:103AB0007C7C7976787E828182807E7E7B7A767845
:103AC0007B7C7A7B808E959089848C88837A7675CE
:103AD000777B7A787A81828382817E7D81827F7C06
:103AE0007D80818181808080807D7A7A7B7C7B78FB
:103AF000797B828A898682888A86827E7D7C7E7EA8
:103B00007D797C7E7F7D7D7F8184848483858583B0
:103B10007F7D7D7C7B797A797B7D7F807F7E7E7DDA
:103B20007D7C7F848586858A8A888683817F7D7A6D
:103B300078777A7C7E7D7E80828382817F807F7FA2
:103B40007E7E7F808181817E7E7F7F7E7C7D7F8087
:103B5000817F7D7D7F7F8082838486888785818049
:103B60007F7D7C7A797A7C7F807F7E7E7F8081807A
:103B70007F7F80817F7E7D7D7E8081818182828347
:103B80008585817F8081807E7D7B7A7A7C7F7E7E49
:103B90007F8385838281817F7E7D7C7A7B7E80802E
:103BA0007F80807F80808080818382818182817F0D
:103BB000808181828080808182807E7C7C7C7A7A18
:103BC00079797A7D848584818588868380807D7BF0
:103BD000797674787C7E80828585878786848382E7
:103BE000817F7F7F7F7F7F82807F7C7A7A7B7E7EF2
:103BF0007D7E7D7F7E7F7D7D7D818B8986808585B5
:103C0000807B787875797B7C7C83888A86868684BD
:103C1000807E7D7B797B7D7E7F83878988857F77AA
:103C200074767B7D8182817C7B787A797B76838FC9
:103C300091887C8B8381747675757D8686848C8C67
:103C40008F83837B757476787679828685878A8A76
:103C5000827D737476808485807D7B7B7B7A7A76A7
:103C6000777F9E9A8F797E867E7B6E7173858F8E2D
:103C7000838586847D716F6C757E8284858C8F8A46
:103C8000857D7B787576797E82807B7C7D80817F67
:103C90007D777882A2A1907273867A7969747B8726
:103CA000958D837F817B746B73747E8F8F8D878CF2
:103CB00089797573747E8B8E8071777A81807E7F2F
:103CC0007E837C77758085A0A192756D7F72736A03
:103CD000787F8A9893847879757270767A839396D0
:103CE0008E8177777176757B84929F856A5E748802
:103CF0009594817771837D78727A7B7FADAC905794
:103D00006076737B7384859AAB9472656F737277F8
:103D100083848A958E7D6B6E75737D858C8D969C64
:103D20007E5A5B839897877A757A847C70757B7BE3
:103D3000748BAEA17D586774757B7E84889E9F834B
:103D400067686F7178838B8A919989766E747C83AA
:103D500089898486868A7E6B6771858184807E7A74
:103D60007E827E7A7A7B747693BBA5775368727471
:103D70007F787E88A4A0806869757D8083898E990C
:103D8000957F6C66707B8487858988857B77736D6A
:103D90006E808A8A847F807B7D7676767D787A7E57
:103DA0009FBBA1734D66717D7E80919AAB967562C3
:103DB00066727A7A7F818D978A79686C757E8A8837
:103DC000898E8D857A7F7E76727881818279787A04
:103DD0007F807C7A7879777E89ACB090645E7470ED
:103DE0007A737D8DA0A3857268707675767C8F9CC2
:103DF000988776727173757A808A918F827B7E7DC7
:103E0000746E7A888D8B8482827F7A7677767975E4
:103E10007B7CA1AF936E5C746F7C73758CA1A98E53
:103E2000796E6C74766F718599988D7C74777C78D7
:103E3000757B878C8D897F86897F6B6B7D8288807F
:103E40007E81847F74797F837E7677778EA6927762
:103E500066787B7D796C7C8C9A92837B7982827682
:103E6000757B8B8F8881797E837E7B767B8285854F
:103E70007D8084837971777F8483828485827B7857
:103E80007B7E7B777C7F8190948475757E7F837A3F
:103E900079828A8F86817A7D85827C76797F80821D
:103EA0007D7D818384807F7F808381808182827E0B
:103EB0007D7C7D7E7D7D7D7E8181817F8281807D17
:103EC0007C7B7F8586847E8483817C7977757F7F08
:103ED000808382858787827E7F7C80807B79797DE5
:103EE0007E81817E83858584848584847E7D7D7EBC
:103EF0007E7E7C7B7F807E7F7D7C7B79797E8788E0
:103F00008982808383827A7670777C7A7E7D7F87D0
:103F10008B8782838282847D7A7D818383827F8185
:103F20008482807C7D7F817E7C7D7E7E7D7D7B7DAD
:103F30007F81817F7D7C7D7B7B878A87807F858376
:103F4000827977767B827F7F7F838A89847D7F8079
:103F50007F8079787B7F827F7F7E8183807F7F8473
:103F600085837E7C8081807C7C7E7F7D7A7A7B7E6F
:103F70007E7C7D808D968F837A81837F7970747B40
:103F8000837F797C7F86857E7B7E8684817F7F832D
:103F900084827C7B7E80827C7A7F85857F7D7F8426
:103FA00085827F8185837D787B7E7D7A77787B8330
:103FB0009291857C8187817970767F84827A7D81F8
:103FC000827D75767D85847E7E818787807D8186F2
:103FD000837F7C7C8286847B7B7F84817C7C8184E4
:103FE0007D7A7A80807B797B7C7F7F85958E8178D6
:103FF0007F7E7976707C8386817C8284867E787DE4
:104000008288817F828486807B7B7E817E7C7A81B0
:1040100087847B797E83817B7E8288817A797C7EAE
:104020007C77777D7F80809497887C7D86817F7484
:1040300078848782787C83848073747C81807B80A1
:104040008286847E7F8284817C7B8186847A7A7D6D
:1040500082807B7C8189857F7C81827D7A7B818067
:10406000827F85978F7E7380827A756E7C85867F4E
:104070007B8487877D757D81827A797F82847C7A53
:104080008086857F80858889817A7C83817B7A7F21
:10409000838079767B7F7F797A80847E8080909A16
:1040A0008B7C7A8B81776D6F7B7F7F757C86878435
:1040B0007C7D848883787D8285817B7E84877F7AFE
:1040C0007C8085817B7B8184807C7B818380797A05
:1040D0007C807C7A7A7C7D7A7D7E93958B808991B9
:1040E000827970777B7F7974828788827C7F8585EF
:1040F0007A777C7F847F7B7E83837E8080848681C9
:104100007D7C7F7E7B787A7E7F7E7B7D80827E7EDB
:104110007E81807E7C82939189828D8D837C747672
:10412000797D75737A7E83837B7D838580807C7BBC
:1041300082807E7D7E7F828482828385858280806C
:10414000807E7E7D7F7D7C7D7E7E7D7C7A7A797BA4
:104150007D7D7F8384838B8A878A898181837B7B32
:104160007D79797D7A7A7E7C7C8080808382808371
:1041700083818384838383807F7E7C7C7D7C7D7D43
:104180007C7B7C7C7E7F7E7C7B7A79787A80808168
:10419000888B888B8C8584847F7E7F7C7A7E7C7AFA
:1041A0007D7B7B7F7E7E7F7F7F8282808383838512
:1041B00084838382807F7E7C7C7B7B7B7A797B7C23
:1041C0007B7A7A7A7B7C7F8484858A8B8A8C8A85C9
:1041D00084827B7A7B76797D7C7C7F7D7B7F7F7E12
:1041E0008080808382818382828482807F7E7D7FC3
:1041F0007E7D7F808080807E7E7E7C7A7879797FEC
:104200008281848988888B8582837F7D7C79787C94
:104210007C7A7C7B7A7C7E7D7E807E8083828386B6
:1042200087898985827F7E7C7C7D7C7E80807F7C87
:104230007A797A7A7780888482858A89888581806C
:10424000817C7775747A7F7E7E7F7F828785838489
:10425000848486827F8183807C797A7D7C7B797A75
:104260007D807E7976777A7D868E8D898C918D861C
:104270007F7A7979787473777B8081818184868471
:10428000827F7F8083817E7E81847F79787C7E7E41
:104290007C7D7E7F7E7D7B79787578819093898423
:1042A000898C877D72727B7F7A767B848B8A828011
:1042B0008488847C797A81837D7A7F87857F787B07
:1042C00081827E7A7C80827D797A7A76727A8B9806
:1042D00091848388877D716E767F817C7C868C8DCE
:1042E000857F7F82817A76798285817D8184827DD6
:1042F000797D82827C797A7E7C7A787979787E8DF4
:104300009A94888487867E73707880838282858978
:1043100089817977797A78797D81838482828282B2
:104320007F7E7F807F7A787A7C7D7A777577818BC4
:104330009B94877E82837A726D7A82878585898C49
:104340008C8379767A7C79797B7F83858380808181
:104350007F7B797A7A7978797B7E7D7B78808A9188
:1043600099938981807D7873717A7D82808184863A
:10437000857E7C7A7E7E7D7E808486858482838233
:10438000817B79787A7A7879797B79777C858C9258
:10439000928C85817F7A7775797E82838285888900
:1043A00085807D7C7C7A79797B7F81817F7F7F7E30
:1043B0007C797B7C7C7B7B7C7D7D7C7E82888E8D0A
:1043C00089878887817B787A7D7D7C7B7D818281EE
:1043D0007E7E8082827F7E7F828382807F807E7CE1
:1043E00079787A7B7C7C7D7E7F807F7F7F808285F1
:1043F000888888868483817F7E7E7E7D7E7F7F7FA6
:104400007F7F7E7E7E7D7C7E818282828181807EB6
:104410007C7B7C7E7E7F8182848482817F7E7E7EA7
:104420007E80828484848281807F7D7C7C7D7E7E90
:104430007F818281817F7E7E7E7F80838382807F79
:104440007D7C7B7C7D7D7D7F808182838483818078
:104450007F7D7E7F808183848483818181807F7E54
:104460007D7D7D7D7E80807E7D7B7B7A7B7D7F8276
:1044700084868686858483807F7F7D7A7A7C7E7E33
:10448000807E7C7B7A7A7C8082858788878684851B
:104490008381807D7C7D7D7E7D7C7D7C7B78787951
:1044A0007C7F838686888884828080817E7E7D7EF4
:1044B0007E807E7D7C7D7B7B7A797C808484878610
:1044C000858383817F7D7B7A787B7C7F7F828182FD
:1044D0007F7E8181848588878884827F7E7D7C7CC5
:1044E000797C7B7F7F818080807E7D7C7E7E8284E4
:1044F00087868783807F7C7B7B7C7A7B7D818383BF
:1045000083817F7D7D7B7E80838586858483828198
:1045100080817E7C7B7B797C7B7D7D7E7F7D7D7DCC
:104520007F8084858785848482808080807F7F7F70
:10453000807E7E7E7D7B7B7A797A7A7F7F85858699
:104540008484838281807F7F7F7D7D7D807E7E7C71
:104550007C7A7C7C7E80838585858384838381804F
:104560007E7C7C7C7C7E7E7E7B7D7C7C7C7E808475
:1045700085858583837F817F807D7D7B797B7B7C47
:104580007E7F7F7F7E7F7E8082858687878584840D
:1045900083817E7F7C7B797A7C7E7E7E7C7D7E7E45
:1045A0007E8184878887878383807F7B7A79797807
:1045B000787B7C7F80817F7E7E7F818285868888F4
:1045C000858382817F7F7D7C7B7A7D7C7D7C7D7E07
:1045D0007C7E7C7E7F8184848583828081818181D1
:1045E0007F7F7F7F808081807F7D7C7B7B7C7E80E6
:1045F00082838383828280827E7E7D7A7A7A7D7EC8
:104600007C7F80807F7E7D7E8080838184828283A8
:1046100081838180817F7F7D7E807E7F7E7E7B7CAB
:104620007E7E81838586838281807E7D7E7C7C7C8C
:104630007E7E7F7F7E7F7D7D7D7C7E828585868779
:10464000868684848381807E7C7C7A7A797B7C7C7C
:104650007C7C7C7D81818486868784838282817F45
:104660007C7D7D7A7A7B7C7D7D7B7E7B7B7C7E8383
:10467000848587878585838381807D7D7D7B7D7C27
:104680007E7D7D7E7C7B7D7D7F8082838384838035
:10469000818280807D7D7D7D7E7F7F81807E7F7E2B
:1046A0007F80818285848282807F7F7F7F7F7D7C07
:1046B0007D7D817F80807F7D7C7D7A7C808283810F
:1046C000818281817F80807F80807E7D807F8080ED
:1046D0007F807E7F7E818283848283828282817FCB
:1046E0007D7D7B7B7A7A7D7C7C7B7B7A7C7D7F8108
:1046F0008387868685858586858482807D7C7C7C93
:104700007D7B7C7B7A7A797C7D81838383838384C0
:1047100083838483817F7C7D7C7B7B7A7D7B7C7CB7
:104720007B7E8182848586858484838383817F7E6A
:104730007C7B7B7C7C7C7D7E7D7C7D7E8182848499
:10474000838381828281807E7D7B7B7C7C7E7E7F79
:104750007F7F7E7E7F818384848484818180807F4B
:104760007F7D7C7C7A7B7C7C7D7E7E7E7E7F7F8174
:10477000828483838381817F7F7F7C7D7C7D7D7E3E
:10478000808081807F7E7E7E81828382828382811F
:104790008181828282828180807F80807F7D7B7A1E
:1047A00079797B7C7D7F7F7F7E8081818280807F25
:1047B0007E82868686848283817E7A79787B7D7DFF
:1047C0007F7F8083868686858281807F7E7C7C7ADF
:1047D000797775757577797D83888C8D8C8C8B8CCA
:1047E0008B85807A757576777877787B7E828587FA
:1047F0008786868583807D7C7B7A7A7978767577E3
:104800007B80858A8A888786878785827F7B79797E
:104810007A7B7C7E80828385848381807F7E7C79A5
:10482000787777797B7C7C7C7C7F858A8E908E8A7A
:104830008682807D7A7774727374777A7E82878AB3
:104840008C8D8C898684817F7D7A78777576777870
:10485000787877797D848B908F8D8A8683817F7B32
:1048600078757475777A7E8185888A8A8886838050
:104870007E7C7B7B7A7A7A7A7C7E7F7E7E7D7D8170
:10488000868B8E8D89847F7C7A7878777576777A37
:104890007E83878A8B8C8B8985817D7A79787777FF
:1048A0007878787A7D7F8080808183868C8F8E8CEB
:1048B00086807A7776767573737375797F858A8C3F
:1048C0008E8D8C8B898784807D7B7A7978767575DF
:1048D0007677797B7C7C7E81858B8E8E8C898481BA
:1048E0007F7E7D7A78777576797D818283838282F7
:1048F00083838381807F7F808081817F7C7C7C7CBF
:104900007E7F7F7D7C7C7E8185878886827F7D7DA2
:104910007D7F7F7F7E7D7E7E80818182828181809E
:104920007F7F7E7E7E7E7D7C7C7D7F808283838296
:10493000807E7D7C7D7E8182838281808080818279
:10494000828180808081828282807E7D7C7C7D7E6F
:104950007E7E7C7B7B7C7E8081828282828383845C
:104960008382807E7C7A7A7B7C7C7D7D7D7D7D7E72
:104970007F8081828383848586868584838381800A
:104980007F7F7E7D7C7B7A7A7B7B7D7E8080808151
:1049900082838383838281807E7D7D7D7D7D7D7C1E
:1049A0007B7B7C7E7F8182828282838485858482F8
:1049B000807E7D7D7D7D7E7E7E7D7D7D7E80818114
:1049C0008180808081828282817F7E7D7C7C7C7CF4
:1049D0007C7D7E7F7F8182848584848382828181C5
:1049E00081807F7D7C7B7B7A7A7B7C7C7C7D7D7EFD
:1049F00080818383838383838485858482817F7D93
:104A00007D7D7D7E7D7C7C7B7C7D7E7F807F7F7FCE
:104A10008183858586858381807F7E7D7D7C7C7B8F
:104A20007B7B7C7D7E7F7F7F7F7F8082848585848A
:104A30008382818181818181807F7D7D7D7D7E7F7B
:104A40007F7F7E7F7F8080818281807F7E7E7E7F70
:104A500080807F7E7D7C7C7D7D7E7E7E7F8082836C
:104A600083848482817F7E7D7D7D7D7D7D7D7D7E55
:104A70007F808283838383848585858482807E7D15
:104A80007C7B7B7A797A7A7A7B7D7F80828384854E
:104A9000858686868583817F7D7B7B7B7B7B7B7B1D
:104AA0007B7B7B7C7D7E7F80808182838485848309
:104AB0008281807F7E7F808180807F7F7F7F8080FA
:104AC00081807F7E7F808181807F7E7E7F7F8080EE
:104AD0008080807E7D7D7E7E7E7F7E7E7E7F7F7FEE
:104AE00080808080808080818181828281807F7FC0
:104AF0007E7E7F7F7F7F8080818282828282807FB4
:104B00007E7D7C7C7D7D7D7C7B7D7D7E7F7F7F7FD0
:104B100081818284848482817F7E7E7E7D7D7C7C97
:104B20007B7B7C7D7E7F808080818284858586857D
:104B300083828281808080807F7E7D7C7B7B7C7D88
:104B40007E7E7F80818283848584838180807F7E56
:104B50007E7E7D7C7C7C7C7D7E7E7E7E7E7F808179
:104B600082828282807F7E7E7E7E7E7F7E7E7E7E51
:104B70007F80818283838383848584858483807E10
:104B80007E7C7B7B7B7B7B7B7B7C7C7E7F80808158
:104B9000828283838282807F7D7C7D7C7D7D7D7D22
:104BA0007D7E7F8081828281808080808181818101
:104BB00081807F7F7E808182828281807F7E7E7EF7
:104BC0007E7D7D7D7E7F7F808182818181818081EC
:104BD0008181807F7E7D7D7C7C7C7C7D7D7E8082F2
:104BE00083848483838180807F7F7F7E7E7E7D7DC2
:104BF0007D7E7F7F8080828384868687868584828F
:104C0000807E7D7C7C7B7A7A79797A7B7C7D7E7FE5
:104C1000818384858586858483817F7F7E7E7D7B7D
:104C20007A7A7A7A7B7D7E7F7F808284858686858C
:104C30008482817F7E7F7F7F7F807F7F7F80808077
:104C40007F7F7E7E7E808181807F7E7D7C7B7B7C82
:104C50007D7E7E7F7E7E7F7F808080808080808161
:104C600081818181807F7D7C7C7C7D7E7E7E7D7D5F
:104C70007D7E7F8081818282838485858484828019
:104C80007E7D7D7D7D7E7E7E7E7E7E7E7F7F7F7F44
:104C90007F7F81828282828281807F7E7E7E7F7F13
:104CA0007E7E7D7C7C7C7C7C7D7D7E7F818284841D
:104CB00085858483838382828281807F7D7C7C7DE5
:104CC0007D7D7E7E7E7F81838384848381807F7EE1
:104CD0007E7F7F7E7D7D7C7C7D7E7E7F80808081EF
:104CE00081828282838281807E7D7C7C7D7C7D7DD1
:104CF0007D7E7E7F7F8081828383838483838381A3
:104D0000807F7E7D7D7D7C7D7D7C7D7D7E7F7F80C7
:104D100081828484848483817F7E7D7C7C7C7C7C96
:104D20007B7C7D7E7F808080808080818282828289
:104D30008382807F7E7D7D7E7E7E7E7E7E7E7F7F87
:104D40008080808081828283838484838281807F4B
:104D50007F7F7E7E7E7D7D7C7D7C7D7D7E7D7E7F7A
:104D6000808183838383828281808081818181802D
:104D700080807F7E7D7C7C7C7D7E7F808183838242
:104D80008281807F7F7F7F7F7F7F7F7F7F7E7E7E30
:104D90007E7E7F8182838383838381807F7E7D7D0E
:104DA0007D7C7B7B7B7C7B7C7C7D7F808283848520
:104DB00085838381807F7E7D7C7C7C7C7C7C7D7D0B
:104DC0007D7D7E7E7F818384868686868684827FC3
:104DD0007E7D7D7D7D7D7C7C7C7D7D7E7F808182F6
:104DE0008384858686858382807F7D7C7B7B7B7ABE
:104DF0007B7B7B7C7D7E7F808182828383838282BA
:104E0000817F7E7D7D7D7D7E7E7F7E7E7E7F7F7FBE
:104E10007F7F7F8081818282828180807F7F80808E
:104E2000807F7F8081818180807F7E7F7F80818283
:104E30008282828180807F7F7F7E7E7E7E7D7D7E7E
:104E40007E7F7E7D7E7E7F80828383828281807F63
:104E50007F7E7E7D7E7D7D7E7E7E7E7E7E7E7E7F73
:104E6000808283848585848382817F7F7E7D7D7C33
:104E70007C7B7B7C7C7C7C7C7D7F80818386878641
:104E800086858382807F7E7D7B7A7A7A7A7A7A7B46
:104E90007D7E7F80828484848483838281807F7E00
:104EA0007E7D7D7D7D7E7E7F7F7F7F7F8081828412
:104EB0008485848381807F7E7E7E7E7D7D7D7E7EF7
:104EC0007F7F7F807F7F8080818282838382817FDA
:104ED0007E7E7D7D7D7E7D7D7E7F7F8080808081EA
:104EE0008080818182828282807F7E7E7E7E7E7EC5
:104EF0007F7E7F7E7E7E7E7F7F7F808182828384B5
:104F00008382807F7E7E7E7E7E7E7E7E7E7D7D7DB8
:104F10007D7D7E7E80818384858584848382807F7D
:104F20007F7E7E7D7D7D7C7C7C7C7C7D7E7F8082A7
:104F3000838384848383828181818080807F7E7E5D
:104F40007D7C7C7C7C7D7E7E80818283838382826B
:104F500081807F7F7F7E7E7D7D7C7C7C7C7C7D7D77
:104F60007E7F8284848585858482807F7F7E7D7C30
:104F70007C7C7B7C7D7E7E7F808181838384848436
:104F80008382807F7E7E7E7E7E7E7F7F7E7E7E7E33
:104F90007E7E7F8182838484848382807F7E7D7C09
:104FA0007C7C7C7C7D7D7D7E7E7E7E7E7E7F818224
:104FB00083848484838281807F7F7E7D7C7C7C7CF3
:104FC0007D7E7E7F7F7F7F808082838484828181DB
:104FD000808080808080807F7F7F7E7E7E7E7E7EE0
:104FE0007E7E7F808181828281807F7F80808181BF
:104FF00081807F7E7E7D7D7D7D7D7C7D7E808182CA
:105000008283828181818080807F7F7F7E7D7D7CA5
:105010007C7D7E7E7E7F8182838383838282818189
:1050200080807F7E7E7E7D7D7D7D7D7E7E7F80819A
:1050300082848484838281807F7E7E7D7D7C7B7C74
:105040007C7C7C7D7D7E7F80828384858585848257
:1050500081807F7E7E7D7C7C7B7B7B7C7D7E7E7F7A
:105060007F80818283848484838281808080808029
:105070007F7E7E7D7E7E7E7E7E7F7F808081818240
:10508000828281807F7F7F7F7F7F7F7F7F7E7E7E2A
:105090007D7D7D7D7E7F80828282828281807F7F16
:1050A00080807F7F7F7F7F7F7F7F7F7E7E7E7E7E13
:1050B0007F80818181807F7F7F7F808181808080F0
:1050C000807F80807F7F7F7F7F80818282838281DB
:1050D000808080808181807F7E7D7D7C7C7C7C7CEB
:1050E0007C7C7E80828485858483828181807F7FB1
:1050F0007E7D7C7B7B7B7C7C7D7E7E7F80828384CF
:105100008585848382818080807F7E7D7C7C7B7BA3
:105110007B7C7C7D7E7F8182838484848382818189
:10512000818080807F7E7D7D7D7D7D7D7D7E7F8099
:1051300081828383838281807F7E7E7E7E7E7D7D71
:105140007E7E7E7E7E7F7F7F808081828282818064
:105150007F7E7E7E7E7E7F7F7F7F7F80808080805F
:105160008080808080818181807F7E7E7E7E7F7F47
:10517000807F7F7F7F7E7E7F7F7F7F7F8081828336
:105180008383828180807F7F7F807F7F7F7E7E7D23
:105190007D7C7C7D7E7E7F80818282828281818116
:1051A00080808080807F7F7F7E7E7D7D7D7D7D7E17
:1051B0007F808181828282828181828281807F7FE1
:1051C0007E7E7D7C7C7C7C7C7D7E808183848483F0
:1051D00082828181818080807F7E7D7D7E7E7E7ED9
:1051E0007E7E7F7F80818283838281807F7F7F7FBD
:1051F0007F7E7E7E7D7D7D7E7F7F7F8081818282BE
:1052000083838280807F7E7E7E7E7F7E7D7D7D7DAE
:105210007D7D7E7F808181828383848382807F7E87
:105220007E7D7E7D7D7D7E7E7D7D7E7F7F7F80819C
:105230008182828282828180807F7F7F7F7F7F7F69
:105240007E7F7F7F7E7E7E7E7E7E7F80818281806C
:105250007F7F7F7F80818181807F7E7D7D7E7E7E5E
:105260007F7F7F8080818283838382807F7F808134
:1052700081818181807F7F7D7D7D7C7D7D7E7F8042
:1052800081818181818181818181808080807F7F16
:105290007F7F7F7F7F7F7F80808080818181818110
:1052A0008180807F7F7E7E7E7E7E7D7D7D7D7D7E1A
:1052B0008081828382828180808080818181807EE2
:1052C0007D7D7D7D7E7E7E7E7F80808182838383E7
:1052D000817F7D7D7D7E7E7D7D7D7D7E7E7E7E7DF2
:1052E0007D7E7E7F80828384848381808080807FB6
:1052F0007E7D7D7D7D7D7D7D7E7F7F7F7F7F7F80CD
:1053000081828282818181818180808080807F7E94
:105310007E7E7E7E7E7F7F80818282828181807F91
:1053200080818181818181818180807F7E7D7C7C83
:105330007C7C7D7E7F80808080808080808080817A
:105340008181818181807E7E7E7F7F7F7F80808062
:105350008080808181828282807F7F7E7D7D7D7E54
:105360007E7E7E7E7E7F818283838282818080803A
:1053700080808080807F7E7D7D7C7C7C7D7E7F8147
:105380008384848383838382807F7E7D7C7B7B7C1C
:105390007C7C7D7D7D7D7D7E7F8081828384848415
:1053A00084838281807F7F7D7D7C7C7C7C7C7D7E14
:1053B0007F8081818182807F7F7F808081818080EA
:1053C0007F7E7F8080807F7E7E7D7D7E7F808181ED
:1053D0008181807F7F7F7F7E7E7E7F8080808181D4
:1053E0008180807F7E7E7F7F7F7F7F7F80808181C5
:1053F000807F7F7E7E7E7F808081818080808081B3
:1054000082828181807F7F7F7F7F7F7F808180809C
:105410007F7F7E7D7D7C7D7D7F8081818283838394
:1054200083828181807F7E7E7E7E7E7F7F7E7E7D89
:105430007C7C7D7E7F80828384848484838381805E
:105440007E7D7C7C7B7B7B7C7C7C7D7E7E7F80818B
:10545000818181818282828281808080807F7F7F42
:105460007E7D7D7D7C7D7F80828283828181807F45
:105470007F7E7E7E7E7E7E7D7D7E7E7E7F7F7F7F49
:1054800080818181818182838282807F7E7D7D7D1A
:105490007E7F7F80808080808182828281807F7E0B
:1054A0007E7F7E7E7E7F7F7F7F7F7F7F7F7F7F800F
:1054B0008080808181818182828181807F7F7F7FE6
:1054C0007E7F7F818181807F7E7D7C7C7D7E7F80F1
:1054D0008080808181828282807F7F7F7F7F8080C9
:1054E0007F7F7E7E7E7E7E7E7E7E7E7E7F808283CE
:1054F000838282818180807F7F7E7E7D7D7C7C7CBB
:105500007E7F808080808080808182828281818095
:10551000807F8080807F7E7E7E7E7E7F8081828293
:1055200083838281807F7E7D7D7D7D7E7E7E7E7E8B
:105530007D7E7F808080808080808081818181816C
:10554000807F7E7E7E7D7E7E7E7F7F808081818269
:10555000828282807F7F7F7E7E7E7E7E7E7F7F7F57
:105560007F7F7E7E7D7E7F81828282828282838334
:105570008281807F7E7E7D7D7E7F7F80807F7F7E3B
:105580007E7E7F7F7F7F7F808080807F8080808025
:105590007F7F7F8080807F7E7F808081818181800E
:1055A000807F7E7F808181818181818181807F7FF9
:1055B0007E7D7D7C7D7E7E7F8081818281818080F9
:1055C000808080818180807F7F7F7F7F7F7F7F7FE2
:1055D0007F7F7F7F808182828281807F7F7E7E7DD0
:1055E0007D7E7E7D7D7D7E7F8081818180808081CA
:1055F00080808080808080807F7F7F7E7D7C7C7DBE
:105600007E7F81828282828382828181807F7E7D91
:105610007D7D7D7D7E7E7E7E7E7E7E7F7F808182A3
:105620008282828281818181807F7E7E7E7D7D7D7E
:105630007D7F7F8080818281807F7E7E7F7F7F8073
:105640007F80808080808080807F7F7E7E7F7F8063
:1056500081828282818181807F7F7F808080808142
:1056600081818180807F7F7E7F7F7F7E7E7F7F7F45
:105670008080808181807F7F7F7F7F7F807F7F7F31
:10568000808081818180807F7F7F7F7F7F8081821A
:1056900081807F7F7E7D7C7C7C7D7D7E7E7E7F8029
:1056A000818282828181818080807F808081807FF1
:1056B0007F7E7E7D7D7E7E7F7F80818182828282F1
:1056C000828181807F7E7D7D7D7C7D7D7E7E7F80F1
:1056D00080808080808181818181818181818080C1
:1056E0007F7E7E7D7D7D7D7E7F80818182828282C4
:1056F00081807F7E7E7E7E7E7E7E7F7F7F7E7F7FBF
:105700007F8080807F8080808182828281807F7D97
:105710007D7D7D7F7F7F8080808181828281807F8F
:105720007F7E7E7E7E7F7F807F7F807F7F7F7E7E8D
:105730007E7E7F8080808181818181828181808065
:105740007F7F7E7F7F80808181807F7F7E7D7E7E68
:105750007E7E7E7E7F8081818282828181807F7F4A
:105760007F7F7F7F8080808080807F7F7F7F7F8042
:1057700080818182828181807F7F7E7E7D7D7C7B36
:105780007C7D7E7E7E7F8080808080818181818023
:105790008080808080807F7F7E7D7D7D7E7E7F7F1C
:1057A0008081828282828281807F7E7E7E7E7F7FF8
:1057B0007F808080818181818181818080808081E2
:1057C00081828181807F7E7D7D7E7E7E7E7F8080E6
:1057D00080818181818180807F7F7E7E7D7E7E7ED3
:1057E0007E7F7F7F7E7E7F7F8080808080818181C1
:1057F000828282828281807F7F7E7E7F80808080A5
:10580000808180807F7E7E7F7F7F7F7F808081819F
:10581000807F7F807F7F7E7E7E7F7F7F7F7F808097
:10582000807F7F7F7F808081818181818080808077
:105830007F7E7E7E7E7D7D7D7E7E7E7F808282827B
:105840008181818080807F7F7F7F7F808080818059
:10585000807F7E7E7E7F7F808081828282817F7E4C
:105860007D7D7D7D7D7D7E7F7F7F8080808181814C
:105870008180807F807F7F7F7F7F807F7F7E7E7D36
:105880007D7E7F7F8080818182838383828282800C
:105890007E7D7C7D7D7E7F7F80808180807F7F801C
:1058A00080808080818181818181807F7E7E7D7DFD
:1058B0007D7D7E7F80818181818080808080807FEE
:1058C0007F7F7E7E7E7E7E7F7F7F8080807F7E7EEC
:1058D0007E7E7E7F808181818181818080807F7ECC
:1058E0007E7F80818181828281807F7E7D7C7D7EC2
:1058F0007E7E7F8081818180807F7E7E7E7E7E7EB7
:105900007F7F8080807F7F80808080807F8080819B
:105910008181818181807F7E7D7D7D7D7D7D7D7D9D
:105920007E7F80818182828281807F7E7E7F7F8078
:105930008081818181807F7E7E7E7E7F7F8081826B
:1059400083838382817F7E7D7C7B7B7B7C7D7E7F6E
:105950007F7F7F8080808081818181828281808041
:105960008080807F7F7E7E7D7D7E7F7F7F80818245
:105970008282828181807F7E7E7E7E7E7E7F7F802E
:105980008181828180807F7F7F7F7F81828282820E
:10599000817F7E7E7D7D7E7F7F808181828282810C
:1059A00081807F7E7E7D7D7D7E7E7E7F7F81818109
:1059B0008181807F7F7F7F7F7F807F7F7F7F7F7FF1
:1059C0007F7F7F7F7F7E7E7E7F8181828281807EDE
:1059D0007D7C7C7C7D7E7F818182828283838280CC
:1059E0007F7D7D7C7C7D7E8082838382807F7E7EC6
:1059F0007E7E7F7F80818181818181828281807EA4
:105A00007D7C7C7C7C7D7E7F8081818180818282A7
:105A10008281807F7E7E7F7F7F7F7F807F7E7D7D96
:105A20007E7F81838484848383817F7E7D7D7D7D71
:105A30007C7C7D7F80828383828281807F7E7E7E6C
:105A40007F7F8080807F7F7F7F7F7F7F7F7F7F7F63
:105A50007F7F7F8081828282818180807F7F7E7D47
:105A60007D7D7E7E7E7F7F7F7F7F7E7E7E7F7F804F
:105A7000818282828281807F7E7D7D7D7D7D7E7F31
:105A8000808283838382807F7F7E7E7E7E7F7F8015
:105A90008080808080818181807F7F7E7E7E7E7E0F
:105AA0007E7F7F7F7F7E7F808081818180808080FC
:105AB00081818181807F7E7D7D7C7D7E7F808181F3
:105AC00082828281817F7D7D7D7D7D7E7F808182DE
:105AD000828180807F7F7F7E7E7F818182838383BE
